{
  "_format": "hh-sol-artifact-1",
  "contractName": "Defi",
  "sourceName": "contracts/Defi.sol",
  "abi": [
    {
      "inputs": [
        {
          "internalType": "string",
          "name": "name",
          "type": "string"
        },
        {
          "internalType": "string",
          "name": "symbol",
          "type": "string"
        }
      ],
      "stateMutability": "nonpayable",
      "type": "constructor"
    },
    {
      "anonymous": false,
      "inputs": [
        {
          "indexed": true,
          "internalType": "address",
          "name": "owner",
          "type": "address"
        },
        {
          "indexed": true,
          "internalType": "address",
          "name": "spender",
          "type": "address"
        },
        {
          "indexed": false,
          "internalType": "uint256",
          "name": "value",
          "type": "uint256"
        }
      ],
      "name": "Approval",
      "type": "event"
    },
    {
      "anonymous": false,
      "inputs": [
        {
          "indexed": true,
          "internalType": "address",
          "name": "from",
          "type": "address"
        },
        {
          "indexed": true,
          "internalType": "address",
          "name": "to",
          "type": "address"
        },
        {
          "indexed": false,
          "internalType": "uint256",
          "name": "value",
          "type": "uint256"
        }
      ],
      "name": "Transfer",
      "type": "event"
    },
    {
      "inputs": [
        {
          "internalType": "uint256",
          "name": "amount",
          "type": "uint256"
        }
      ],
      "name": "BuyTokens",
      "outputs": [],
      "stateMutability": "nonpayable",
      "type": "function"
    },
    {
      "inputs": [
        {
          "internalType": "address",
          "name": "staker",
          "type": "address"
        },
        {
          "internalType": "uint256",
          "name": "amount",
          "type": "uint256"
        }
      ],
      "name": "RewardCalculater",
      "outputs": [
        {
          "internalType": "uint256",
          "name": "",
          "type": "uint256"
        }
      ],
      "stateMutability": "view",
      "type": "function"
    },
    {
      "inputs": [
        {
          "internalType": "address",
          "name": "",
          "type": "address"
        }
      ],
      "name": "StakeStore",
      "outputs": [
        {
          "internalType": "uint256",
          "name": "amount",
          "type": "uint256"
        },
        {
          "internalType": "uint256",
          "name": "startTime",
          "type": "uint256"
        }
      ],
      "stateMutability": "view",
      "type": "function"
    },
    {
      "inputs": [
        {
          "internalType": "uint256",
          "name": "amount",
          "type": "uint256"
        }
      ],
      "name": "StakeTokens",
      "outputs": [],
      "stateMutability": "nonpayable",
      "type": "function"
    },
    {
      "inputs": [
        {
          "internalType": "address",
          "name": "staker",
          "type": "address"
        }
      ],
      "name": "StakerDetails",
      "outputs": [
        {
          "components": [
            {
              "internalType": "uint256",
              "name": "amount",
              "type": "uint256"
            },
            {
              "internalType": "uint256",
              "name": "startTime",
              "type": "uint256"
            }
          ],
          "internalType": "struct Defi.Stake",
          "name": "",
          "type": "tuple"
        }
      ],
      "stateMutability": "view",
      "type": "function"
    },
    {
      "inputs": [
        {
          "internalType": "uint256",
          "name": "amount",
          "type": "uint256"
        }
      ],
      "name": "UnstakeTokens",
      "outputs": [],
      "stateMutability": "nonpayable",
      "type": "function"
    },
    {
      "inputs": [
        {
          "internalType": "address",
          "name": "owner",
          "type": "address"
        },
        {
          "internalType": "address",
          "name": "spender",
          "type": "address"
        }
      ],
      "name": "allowance",
      "outputs": [
        {
          "internalType": "uint256",
          "name": "",
          "type": "uint256"
        }
      ],
      "stateMutability": "view",
      "type": "function"
    },
    {
      "inputs": [
        {
          "internalType": "address",
          "name": "spender",
          "type": "address"
        },
        {
          "internalType": "uint256",
          "name": "amount",
          "type": "uint256"
        }
      ],
      "name": "approve",
      "outputs": [
        {
          "internalType": "bool",
          "name": "",
          "type": "bool"
        }
      ],
      "stateMutability": "nonpayable",
      "type": "function"
    },
    {
      "inputs": [
        {
          "internalType": "address",
          "name": "account",
          "type": "address"
        }
      ],
      "name": "balanceOf",
      "outputs": [
        {
          "internalType": "uint256",
          "name": "",
          "type": "uint256"
        }
      ],
      "stateMutability": "view",
      "type": "function"
    },
    {
      "inputs": [
        {
          "internalType": "address",
          "name": "pukey",
          "type": "address"
        }
      ],
      "name": "checkbalance",
      "outputs": [
        {
          "internalType": "uint256",
          "name": "",
          "type": "uint256"
        }
      ],
      "stateMutability": "view",
      "type": "function"
    },
    {
      "inputs": [],
      "name": "decimals",
      "outputs": [
        {
          "internalType": "uint8",
          "name": "",
          "type": "uint8"
        }
      ],
      "stateMutability": "view",
      "type": "function"
    },
    {
      "inputs": [
        {
          "internalType": "address",
          "name": "spender",
          "type": "address"
        },
        {
          "internalType": "uint256",
          "name": "subtractedValue",
          "type": "uint256"
        }
      ],
      "name": "decreaseAllowance",
      "outputs": [
        {
          "internalType": "bool",
          "name": "",
          "type": "bool"
        }
      ],
      "stateMutability": "nonpayable",
      "type": "function"
    },
    {
      "inputs": [
        {
          "internalType": "address",
          "name": "spender",
          "type": "address"
        },
        {
          "internalType": "uint256",
          "name": "addedValue",
          "type": "uint256"
        }
      ],
      "name": "increaseAllowance",
      "outputs": [
        {
          "internalType": "bool",
          "name": "",
          "type": "bool"
        }
      ],
      "stateMutability": "nonpayable",
      "type": "function"
    },
    {
      "inputs": [],
      "name": "name",
      "outputs": [
        {
          "internalType": "string",
          "name": "",
          "type": "string"
        }
      ],
      "stateMutability": "view",
      "type": "function"
    },
    {
      "inputs": [],
      "name": "symbol",
      "outputs": [
        {
          "internalType": "string",
          "name": "",
          "type": "string"
        }
      ],
      "stateMutability": "view",
      "type": "function"
    },
    {
      "inputs": [],
      "name": "totalSupply",
      "outputs": [
        {
          "internalType": "uint256",
          "name": "",
          "type": "uint256"
        }
      ],
      "stateMutability": "view",
      "type": "function"
    },
    {
      "inputs": [
        {
          "internalType": "address",
          "name": "to",
          "type": "address"
        },
        {
          "internalType": "uint256",
          "name": "amount",
          "type": "uint256"
        }
      ],
      "name": "transfer",
      "outputs": [
        {
          "internalType": "bool",
          "name": "",
          "type": "bool"
        }
      ],
      "stateMutability": "nonpayable",
      "type": "function"
    },
    {
      "inputs": [
        {
          "internalType": "address",
          "name": "from",
          "type": "address"
        },
        {
          "internalType": "address",
          "name": "to",
          "type": "address"
        },
        {
          "internalType": "uint256",
          "name": "amount",
          "type": "uint256"
        }
      ],
      "name": "transferFrom",
      "outputs": [
        {
          "internalType": "bool",
          "name": "",
          "type": "bool"
        }
      ],
      "stateMutability": "nonpayable",
      "type": "function"
    }
  ],
  "bytecode": "0x60806040523480156200001157600080fd5b506040516200241638038062002416833981810160405281019062000037919062000323565b818181600390805190602001906200005192919062000201565b5080600490805190602001906200006a92919062000201565b50505062000081306127106200008960201b60201c565b50506200064d565b600073ffffffffffffffffffffffffffffffffffffffff168273ffffffffffffffffffffffffffffffffffffffff161415620000fc576040517f08c379a0000000000000000000000000000000000000000000000000000000008152600401620000f390620003ce565b60405180910390fd5b6200011060008383620001f760201b60201c565b80600260008282546200012491906200047d565b92505081905550806000808473ffffffffffffffffffffffffffffffffffffffff1673ffffffffffffffffffffffffffffffffffffffff168152602001908152602001600020600082825401925050819055508173ffffffffffffffffffffffffffffffffffffffff16600073ffffffffffffffffffffffffffffffffffffffff167fddf252ad1be2c89b69c2b068fc378daa952ba7f163c4a11628f55a4df523b3ef83604051620001d79190620003f0565b60405180910390a3620001f360008383620001fc60201b60201c565b5050565b505050565b505050565b8280546200020f906200051a565b90600052602060002090601f0160209004810192826200023357600085556200027f565b82601f106200024e57805160ff19168380011785556200027f565b828001600101855582156200027f579182015b828111156200027e57825182559160200191906001019062000261565b5b5090506200028e919062000292565b5090565b5b80821115620002ad57600081600090555060010162000293565b5090565b6000620002c8620002c28462000436565b6200040d565b905082815260208101848484011115620002e157600080fd5b620002ee848285620004e4565b509392505050565b600082601f8301126200030857600080fd5b81516200031a848260208601620002b1565b91505092915050565b600080604083850312156200033757600080fd5b600083015167ffffffffffffffff8111156200035257600080fd5b6200036085828601620002f6565b925050602083015167ffffffffffffffff8111156200037e57600080fd5b6200038c85828601620002f6565b9150509250929050565b6000620003a5601f836200046c565b9150620003b28262000624565b602082019050919050565b620003c881620004da565b82525050565b60006020820190508181036000830152620003e98162000396565b9050919050565b6000602082019050620004076000830184620003bd565b92915050565b6000620004196200042c565b905062000427828262000550565b919050565b6000604051905090565b600067ffffffffffffffff821115620004545762000453620005e4565b5b6200045f8262000613565b9050602081019050919050565b600082825260208201905092915050565b60006200048a82620004da565b91506200049783620004da565b9250827fffffffffffffffffffffffffffffffffffffffffffffffffffffffffffffffff03821115620004cf57620004ce62000586565b5b828201905092915050565b6000819050919050565b60005b8381101562000504578082015181840152602081019050620004e7565b8381111562000514576000848401525b50505050565b600060028204905060018216806200053357607f821691505b602082108114156200054a5762000549620005b5565b5b50919050565b6200055b8262000613565b810181811067ffffffffffffffff821117156200057d576200057c620005e4565b5b80604052505050565b7f4e487b7100000000000000000000000000000000000000000000000000000000600052601160045260246000fd5b7f4e487b7100000000000000000000000000000000000000000000000000000000600052602260045260246000fd5b7f4e487b7100000000000000000000000000000000000000000000000000000000600052604160045260246000fd5b6000601f19601f8301169050919050565b7f45524332303a206d696e7420746f20746865207a65726f206164647265737300600082015250565b611db9806200065d6000396000f3fe608060405234801561001057600080fd5b50600436106101165760003560e01c806389749adb116100a2578063a9059cbb11610071578063a9059cbb1461031b578063c913dc7d1461034b578063dd62ed3e1461037c578063e83029bb146103ac578063f3c756dc146103dc57610116565b806389749adb146102815780638af316451461029d57806395d89b41146102cd578063a457c2d7146102eb57610116565b8063313ce567116100e9578063313ce567146101b7578063368a36c4146101d557806339509351146101f15780633a298a751461022157806370a082311461025157610116565b806306fdde031461011b578063095ea7b31461013957806318160ddd1461016957806323b872dd14610187575b600080fd5b6101236103f8565b6040516101309190611594565b60405180910390f35b610153600480360381019061014e91906112cc565b61048a565b6040516101609190611579565b60405180910390f35b6101716104ad565b60405161017e9190611751565b60405180910390f35b6101a1600480360381019061019c919061127d565b6104b7565b6040516101ae9190611579565b60405180910390f35b6101bf6104e6565b6040516101cc9190611795565b60405180910390f35b6101ef60048036038101906101ea9190611308565b6104ef565b005b61020b600480360381019061020691906112cc565b61072a565b6040516102189190611579565b60405180910390f35b61023b60048036038101906102369190611218565b610761565b6040516102489190611736565b60405180910390f35b61026b60048036038101906102669190611218565b6107ce565b6040516102789190611751565b60405180910390f35b61029b60048036038101906102969190611308565b610816565b005b6102b760048036038101906102b291906112cc565b61086e565b6040516102c49190611751565b60405180910390f35b6102d5610971565b6040516102e29190611594565b60405180910390f35b610305600480360381019061030091906112cc565b610a03565b6040516103129190611579565b60405180910390f35b610335600480360381019061033091906112cc565b610a7a565b6040516103429190611579565b60405180910390f35b61036560048036038101906103609190611218565b610a9d565b60405161037392919061176c565b60405180910390f35b61039660048036038101906103919190611241565b610ac1565b6040516103a39190611751565b60405180910390f35b6103c660048036038101906103c19190611218565b610b48565b6040516103d39190611751565b60405180910390f35b6103f660048036038101906103f19190611308565b610b5a565b005b60606003805461040790611969565b80601f016020809104026020016040519081016040528092919081815260200182805461043390611969565b80156104805780601f1061045557610100808354040283529160200191610480565b820191906000526020600020905b81548152906001019060200180831161046357829003601f168201915b5050505050905090565b600080610495610c9b565b90506104a2818585610ca3565b600191505092915050565b6000600254905090565b6000806104c2610c9b565b90506104cf858285610e6e565b6104da858585610efa565b60019150509392505050565b60006012905090565b6000600560003373ffffffffffffffffffffffffffffffffffffffff1673ffffffffffffffffffffffffffffffffffffffff1681526020019081526020016000206000015411610574576040517f08c379a000000000000000000000000000000000000000000000000000000000815260040161056b90611676565b60405180910390fd5b6000610580338361086e565b90506000610597828461117290919063ffffffff16565b90506105a2306107ce565b8111156105e4576040517f08c379a00000000000000000000000000000000000000000000000000000000081526004016105db906116f6565b60405180910390fd5b82600560003373ffffffffffffffffffffffffffffffffffffffff1673ffffffffffffffffffffffffffffffffffffffff16815260200190815260200160002060000154141561068557600560003373ffffffffffffffffffffffffffffffffffffffff1673ffffffffffffffffffffffffffffffffffffffff1681526020019081526020016000206000808201600090556001820160009055505061071a565b82600560003373ffffffffffffffffffffffffffffffffffffffff1673ffffffffffffffffffffffffffffffffffffffff168152602001908152602001600020600001546106d391906118ad565b600560003373ffffffffffffffffffffffffffffffffffffffff1673ffffffffffffffffffffffffffffffffffffffff168152602001908152602001600020600001819055505b610725303383610efa565b505050565b600080610735610c9b565b90506107568185856107478589610ac1565b61075191906117cc565b610ca3565b600191505092915050565b6107696111d4565b600560008373ffffffffffffffffffffffffffffffffffffffff1673ffffffffffffffffffffffffffffffffffffffff168152602001908152602001600020604051806040016040529081600082015481526020016001820154815250509050919050565b60008060008373ffffffffffffffffffffffffffffffffffffffff1673ffffffffffffffffffffffffffffffffffffffff168152602001908152602001600020549050919050565b8061082030610b48565b11610860576040517f08c379a0000000000000000000000000000000000000000000000000000000008152600401610857906116d6565b60405180910390fd5b61086b303383610efa565b50565b600080600560008573ffffffffffffffffffffffffffffffffffffffff1673ffffffffffffffffffffffffffffffffffffffff168152602001908152602001600020905060008160000154116108f9576040517f08c379a00000000000000000000000000000000000000000000000000000000081526004016108f090611676565b60405180910390fd5b600061091282600101544261118890919063ffffffff16565b90506000610963606461095561012c610947600a610939888c61119e90919063ffffffff16565b61119e90919063ffffffff16565b6111b490919063ffffffff16565b6111b490919063ffffffff16565b905080935050505092915050565b60606004805461098090611969565b80601f01602080910402602001604051908101604052809291908181526020018280546109ac90611969565b80156109f95780601f106109ce576101008083540402835291602001916109f9565b820191906000526020600020905b8154815290600101906020018083116109dc57829003601f168201915b5050505050905090565b600080610a0e610c9b565b90506000610a1c8286610ac1565b905083811015610a61576040517f08c379a0000000000000000000000000000000000000000000000000000000008152600401610a5890611716565b60405180910390fd5b610a6e8286868403610ca3565b60019250505092915050565b600080610a85610c9b565b9050610a92818585610efa565b600191505092915050565b60056020528060005260406000206000915090508060000154908060010154905082565b6000600160008473ffffffffffffffffffffffffffffffffffffffff1673ffffffffffffffffffffffffffffffffffffffff16815260200190815260200160002060008373ffffffffffffffffffffffffffffffffffffffff1673ffffffffffffffffffffffffffffffffffffffff16815260200190815260200160002054905092915050565b6000610b53826107ce565b9050919050565b60008111610b9d576040517f08c379a0000000000000000000000000000000000000000000000000000000008152600401610b9490611616565b60405180910390fd5b6000600560003373ffffffffffffffffffffffffffffffffffffffff1673ffffffffffffffffffffffffffffffffffffffff1681526020019081526020016000206000015414610c22576040517f08c379a0000000000000000000000000000000000000000000000000000000008152600401610c19906115f6565b60405180910390fd5b610c2d333083610efa565b604051806040016040528082815260200142815250600560003373ffffffffffffffffffffffffffffffffffffffff1673ffffffffffffffffffffffffffffffffffffffff168152602001908152602001600020600082015181600001556020820151816001015590505050565b600033905090565b600073ffffffffffffffffffffffffffffffffffffffff168373ffffffffffffffffffffffffffffffffffffffff161415610d13576040517f08c379a0000000000000000000000000000000000000000000000000000000008152600401610d0a906116b6565b60405180910390fd5b600073ffffffffffffffffffffffffffffffffffffffff168273ffffffffffffffffffffffffffffffffffffffff161415610d83576040517f08c379a0000000000000000000000000000000000000000000000000000000008152600401610d7a906115d6565b60405180910390fd5b80600160008573ffffffffffffffffffffffffffffffffffffffff1673ffffffffffffffffffffffffffffffffffffffff16815260200190815260200160002060008473ffffffffffffffffffffffffffffffffffffffff1673ffffffffffffffffffffffffffffffffffffffff168152602001908152602001600020819055508173ffffffffffffffffffffffffffffffffffffffff168373ffffffffffffffffffffffffffffffffffffffff167f8c5be1e5ebec7d5bd14f71427d1e84f3dd0314c0f7b2291e5b200ac8c7c3b92583604051610e619190611751565b60405180910390a3505050565b6000610e7a8484610ac1565b90507fffffffffffffffffffffffffffffffffffffffffffffffffffffffffffffffff8114610ef45781811015610ee6576040517f08c379a0000000000000000000000000000000000000000000000000000000008152600401610edd90611636565b60405180910390fd5b610ef38484848403610ca3565b5b50505050565b600073ffffffffffffffffffffffffffffffffffffffff168373ffffffffffffffffffffffffffffffffffffffff161415610f6a576040517f08c379a0000000000000000000000000000000000000000000000000000000008152600401610f6190611696565b60405180910390fd5b600073ffffffffffffffffffffffffffffffffffffffff168273ffffffffffffffffffffffffffffffffffffffff161415610fda576040517f08c379a0000000000000000000000000000000000000000000000000000000008152600401610fd1906115b6565b60405180910390fd5b610fe58383836111ca565b60008060008573ffffffffffffffffffffffffffffffffffffffff1673ffffffffffffffffffffffffffffffffffffffff1681526020019081526020016000205490508181101561106b576040517f08c379a000000000000000000000000000000000000000000000000000000000815260040161106290611656565b60405180910390fd5b8181036000808673ffffffffffffffffffffffffffffffffffffffff1673ffffffffffffffffffffffffffffffffffffffff16815260200190815260200160002081905550816000808573ffffffffffffffffffffffffffffffffffffffff1673ffffffffffffffffffffffffffffffffffffffff168152602001908152602001600020600082825401925050819055508273ffffffffffffffffffffffffffffffffffffffff168473ffffffffffffffffffffffffffffffffffffffff167fddf252ad1be2c89b69c2b068fc378daa952ba7f163c4a11628f55a4df523b3ef846040516111599190611751565b60405180910390a361116c8484846111cf565b50505050565b6000818361118091906117cc565b905092915050565b6000818361119691906118ad565b905092915050565b600081836111ac9190611853565b905092915050565b600081836111c29190611822565b905092915050565b505050565b505050565b604051806040016040528060008152602001600081525090565b6000813590506111fd81611d55565b92915050565b60008135905061121281611d6c565b92915050565b60006020828403121561122a57600080fd5b6000611238848285016111ee565b91505092915050565b6000806040838503121561125457600080fd5b6000611262858286016111ee565b9250506020611273858286016111ee565b9150509250929050565b60008060006060848603121561129257600080fd5b60006112a0868287016111ee565b93505060206112b1868287016111ee565b92505060406112c286828701611203565b9150509250925092565b600080604083850312156112df57600080fd5b60006112ed858286016111ee565b92505060206112fe85828601611203565b9150509250929050565b60006020828403121561131a57600080fd5b600061132884828501611203565b91505092915050565b61133a816118f3565b82525050565b600061134b826117b0565b61135581856117bb565b9350611365818560208601611936565b61136e81611a28565b840191505092915050565b60006113866023836117bb565b915061139182611a39565b604082019050919050565b60006113a96022836117bb565b91506113b482611a88565b604082019050919050565b60006113cc6022836117bb565b91506113d782611ad7565b604082019050919050565b60006113ef6020836117bb565b91506113fa82611b26565b602082019050919050565b6000611412601d836117bb565b915061141d82611b4f565b602082019050919050565b60006114356026836117bb565b915061144082611b78565b604082019050919050565b6000611458600e836117bb565b915061146382611bc7565b602082019050919050565b600061147b6025836117bb565b915061148682611bf0565b604082019050919050565b600061149e6024836117bb565b91506114a982611c3f565b604082019050919050565b60006114c16012836117bb565b91506114cc82611c8e565b602082019050919050565b60006114e46024836117bb565b91506114ef82611cb7565b604082019050919050565b60006115076025836117bb565b915061151282611d06565b604082019050919050565b604082016000820151611533600085018261154c565b506020820151611546602085018261154c565b50505050565b6115558161191f565b82525050565b6115648161191f565b82525050565b61157381611929565b82525050565b600060208201905061158e6000830184611331565b92915050565b600060208201905081810360008301526115ae8184611340565b905092915050565b600060208201905081810360008301526115cf81611379565b9050919050565b600060208201905081810360008301526115ef8161139c565b9050919050565b6000602082019050818103600083015261160f816113bf565b9050919050565b6000602082019050818103600083015261162f816113e2565b9050919050565b6000602082019050818103600083015261164f81611405565b9050919050565b6000602082019050818103600083015261166f81611428565b9050919050565b6000602082019050818103600083015261168f8161144b565b9050919050565b600060208201905081810360008301526116af8161146e565b9050919050565b600060208201905081810360008301526116cf81611491565b9050919050565b600060208201905081810360008301526116ef816114b4565b9050919050565b6000602082019050818103600083015261170f816114d7565b9050919050565b6000602082019050818103600083015261172f816114fa565b9050919050565b600060408201905061174b600083018461151d565b92915050565b6000602082019050611766600083018461155b565b92915050565b6000604082019050611781600083018561155b565b61178e602083018461155b565b9392505050565b60006020820190506117aa600083018461156a565b92915050565b600081519050919050565b600082825260208201905092915050565b60006117d78261191f565b91506117e28361191f565b9250827fffffffffffffffffffffffffffffffffffffffffffffffffffffffffffffffff038211156118175761181661199b565b5b828201905092915050565b600061182d8261191f565b91506118388361191f565b925082611848576118476119ca565b5b828204905092915050565b600061185e8261191f565b91506118698361191f565b9250817fffffffffffffffffffffffffffffffffffffffffffffffffffffffffffffffff04831182151516156118a2576118a161199b565b5b828202905092915050565b60006118b88261191f565b91506118c38361191f565b9250828210156118d6576118d561199b565b5b828203905092915050565b60006118ec826118ff565b9050919050565b60008115159050919050565b600073ffffffffffffffffffffffffffffffffffffffff82169050919050565b6000819050919050565b600060ff82169050919050565b60005b83811015611954578082015181840152602081019050611939565b83811115611963576000848401525b50505050565b6000600282049050600182168061198157607f821691505b60208210811415611995576119946119f9565b5b50919050565b7f4e487b7100000000000000000000000000000000000000000000000000000000600052601160045260246000fd5b7f4e487b7100000000000000000000000000000000000000000000000000000000600052601260045260246000fd5b7f4e487b7100000000000000000000000000000000000000000000000000000000600052602260045260246000fd5b6000601f19601f8301169050919050565b7f45524332303a207472616e7366657220746f20746865207a65726f206164647260008201527f6573730000000000000000000000000000000000000000000000000000000000602082015250565b7f45524332303a20617070726f766520746f20746865207a65726f20616464726560008201527f7373000000000000000000000000000000000000000000000000000000000000602082015250565b7f43616e6e6f74207374616b65207768696c6520616c7265616479207374616b6960008201527f6e67000000000000000000000000000000000000000000000000000000000000602082015250565b7f416d6f756e74206d7573742062652067726561746572207468616e207a65726f600082015250565b7f45524332303a20696e73756666696369656e7420616c6c6f77616e6365000000600082015250565b7f45524332303a207472616e7366657220616d6f756e742065786365656473206260008201527f616c616e63650000000000000000000000000000000000000000000000000000602082015250565b7f4e6f207374616b6520666f756e64000000000000000000000000000000000000600082015250565b7f45524332303a207472616e736665722066726f6d20746865207a65726f20616460008201527f6472657373000000000000000000000000000000000000000000000000000000602082015250565b7f45524332303a20617070726f76652066726f6d20746865207a65726f2061646460008201527f7265737300000000000000000000000000000000000000000000000000000000602082015250565b7f546f6b656e732061726520736f6c646f75740000000000000000000000000000600082015250565b7f496e73756666696369656e742062616c616e636520696e2074686520636f6e7460008201527f7261637400000000000000000000000000000000000000000000000000000000602082015250565b7f45524332303a2064656372656173656420616c6c6f77616e63652062656c6f7760008201527f207a65726f000000000000000000000000000000000000000000000000000000602082015250565b611d5e816118e1565b8114611d6957600080fd5b50565b611d758161191f565b8114611d8057600080fd5b5056fea2646970667358221220eceb526a85a91ff3b3b5532c0b52eef83054f27a51a6d4374289d4644ee2927d64736f6c63430008010033",
  "linkReferences": {},
  "deployedLinkReferences": {}
}