{
  "_format": "hh-sol-artifact-1",
  "contractName": "Defi",
  "sourceName": "contracts/Defi.sol",
  "abi": [
    {
      "inputs": [
        {
          "internalType": "string",
          "name": "name",
          "type": "string"
        },
        {
          "internalType": "string",
          "name": "symbol",
          "type": "string"
        }
      ],
      "stateMutability": "nonpayable",
      "type": "constructor"
    },
    {
      "anonymous": false,
      "inputs": [
        {
          "indexed": true,
          "internalType": "address",
          "name": "owner",
          "type": "address"
        },
        {
          "indexed": true,
          "internalType": "address",
          "name": "spender",
          "type": "address"
        },
        {
          "indexed": false,
          "internalType": "uint256",
          "name": "value",
          "type": "uint256"
        }
      ],
      "name": "Approval",
      "type": "event"
    },
    {
      "anonymous": false,
      "inputs": [
        {
          "indexed": true,
          "internalType": "address",
          "name": "from",
          "type": "address"
        },
        {
          "indexed": true,
          "internalType": "address",
          "name": "to",
          "type": "address"
        },
        {
          "indexed": false,
          "internalType": "uint256",
          "name": "value",
          "type": "uint256"
        }
      ],
      "name": "Transfer",
      "type": "event"
    },
    {
      "inputs": [
        {
          "internalType": "uint256",
          "name": "amount",
          "type": "uint256"
        }
      ],
      "name": "MintTokens",
      "outputs": [],
      "stateMutability": "nonpayable",
      "type": "function"
    },
    {
      "inputs": [
        {
          "internalType": "address",
          "name": "staker",
          "type": "address"
        },
        {
          "internalType": "uint256",
          "name": "amount",
          "type": "uint256"
        }
      ],
      "name": "RewardCalculater",
      "outputs": [
        {
          "internalType": "uint256",
          "name": "",
          "type": "uint256"
        }
      ],
      "stateMutability": "view",
      "type": "function"
    },
    {
      "inputs": [
        {
          "internalType": "address",
          "name": "",
          "type": "address"
        }
      ],
      "name": "StakeStore",
      "outputs": [
        {
          "internalType": "uint256",
          "name": "amount",
          "type": "uint256"
        },
        {
          "internalType": "uint256",
          "name": "startTime",
          "type": "uint256"
        }
      ],
      "stateMutability": "view",
      "type": "function"
    },
    {
      "inputs": [
        {
          "internalType": "uint256",
          "name": "amount",
          "type": "uint256"
        }
      ],
      "name": "StakeTokens",
      "outputs": [],
      "stateMutability": "nonpayable",
      "type": "function"
    },
    {
      "inputs": [
        {
          "internalType": "address",
          "name": "staker",
          "type": "address"
        }
      ],
      "name": "StakerDetails",
      "outputs": [
        {
          "components": [
            {
              "internalType": "uint256",
              "name": "amount",
              "type": "uint256"
            },
            {
              "internalType": "uint256",
              "name": "startTime",
              "type": "uint256"
            }
          ],
          "internalType": "struct Defi.Stake",
          "name": "",
          "type": "tuple"
        }
      ],
      "stateMutability": "view",
      "type": "function"
    },
    {
      "inputs": [
        {
          "internalType": "uint256",
          "name": "amount",
          "type": "uint256"
        }
      ],
      "name": "UnstakeTokens",
      "outputs": [],
      "stateMutability": "nonpayable",
      "type": "function"
    },
    {
      "inputs": [
        {
          "internalType": "address",
          "name": "owner",
          "type": "address"
        },
        {
          "internalType": "address",
          "name": "spender",
          "type": "address"
        }
      ],
      "name": "allowance",
      "outputs": [
        {
          "internalType": "uint256",
          "name": "",
          "type": "uint256"
        }
      ],
      "stateMutability": "view",
      "type": "function"
    },
    {
      "inputs": [
        {
          "internalType": "address",
          "name": "spender",
          "type": "address"
        },
        {
          "internalType": "uint256",
          "name": "amount",
          "type": "uint256"
        }
      ],
      "name": "approve",
      "outputs": [
        {
          "internalType": "bool",
          "name": "",
          "type": "bool"
        }
      ],
      "stateMutability": "nonpayable",
      "type": "function"
    },
    {
      "inputs": [
        {
          "internalType": "address",
          "name": "account",
          "type": "address"
        }
      ],
      "name": "balanceOf",
      "outputs": [
        {
          "internalType": "uint256",
          "name": "",
          "type": "uint256"
        }
      ],
      "stateMutability": "view",
      "type": "function"
    },
    {
      "inputs": [],
      "name": "decimals",
      "outputs": [
        {
          "internalType": "uint8",
          "name": "",
          "type": "uint8"
        }
      ],
      "stateMutability": "view",
      "type": "function"
    },
    {
      "inputs": [
        {
          "internalType": "address",
          "name": "spender",
          "type": "address"
        },
        {
          "internalType": "uint256",
          "name": "subtractedValue",
          "type": "uint256"
        }
      ],
      "name": "decreaseAllowance",
      "outputs": [
        {
          "internalType": "bool",
          "name": "",
          "type": "bool"
        }
      ],
      "stateMutability": "nonpayable",
      "type": "function"
    },
    {
      "inputs": [
        {
          "internalType": "address",
          "name": "spender",
          "type": "address"
        },
        {
          "internalType": "uint256",
          "name": "addedValue",
          "type": "uint256"
        }
      ],
      "name": "increaseAllowance",
      "outputs": [
        {
          "internalType": "bool",
          "name": "",
          "type": "bool"
        }
      ],
      "stateMutability": "nonpayable",
      "type": "function"
    },
    {
      "inputs": [],
      "name": "name",
      "outputs": [
        {
          "internalType": "string",
          "name": "",
          "type": "string"
        }
      ],
      "stateMutability": "view",
      "type": "function"
    },
    {
      "inputs": [],
      "name": "symbol",
      "outputs": [
        {
          "internalType": "string",
          "name": "",
          "type": "string"
        }
      ],
      "stateMutability": "view",
      "type": "function"
    },
    {
      "inputs": [],
      "name": "totalSupply",
      "outputs": [
        {
          "internalType": "uint256",
          "name": "",
          "type": "uint256"
        }
      ],
      "stateMutability": "view",
      "type": "function"
    },
    {
      "inputs": [
        {
          "internalType": "address",
          "name": "to",
          "type": "address"
        },
        {
          "internalType": "uint256",
          "name": "amount",
          "type": "uint256"
        }
      ],
      "name": "transfer",
      "outputs": [
        {
          "internalType": "bool",
          "name": "",
          "type": "bool"
        }
      ],
      "stateMutability": "nonpayable",
      "type": "function"
    },
    {
      "inputs": [
        {
          "internalType": "address",
          "name": "from",
          "type": "address"
        },
        {
          "internalType": "address",
          "name": "to",
          "type": "address"
        },
        {
          "internalType": "uint256",
          "name": "amount",
          "type": "uint256"
        }
      ],
      "name": "transferFrom",
      "outputs": [
        {
          "internalType": "bool",
          "name": "",
          "type": "bool"
        }
      ],
      "stateMutability": "nonpayable",
      "type": "function"
    }
  ],
  "bytecode": "0x60806040523480156200001157600080fd5b506040516200255938038062002559833981810160405281019062000037919062000323565b818181600390805190602001906200005192919062000201565b5080600490805190602001906200006a92919062000201565b50505062000081306103e86200008960201b60201c565b50506200064d565b600073ffffffffffffffffffffffffffffffffffffffff168273ffffffffffffffffffffffffffffffffffffffff161415620000fc576040517f08c379a0000000000000000000000000000000000000000000000000000000008152600401620000f390620003ce565b60405180910390fd5b6200011060008383620001f760201b60201c565b80600260008282546200012491906200047d565b92505081905550806000808473ffffffffffffffffffffffffffffffffffffffff1673ffffffffffffffffffffffffffffffffffffffff168152602001908152602001600020600082825401925050819055508173ffffffffffffffffffffffffffffffffffffffff16600073ffffffffffffffffffffffffffffffffffffffff167fddf252ad1be2c89b69c2b068fc378daa952ba7f163c4a11628f55a4df523b3ef83604051620001d79190620003f0565b60405180910390a3620001f360008383620001fc60201b60201c565b5050565b505050565b505050565b8280546200020f906200051a565b90600052602060002090601f0160209004810192826200023357600085556200027f565b82601f106200024e57805160ff19168380011785556200027f565b828001600101855582156200027f579182015b828111156200027e57825182559160200191906001019062000261565b5b5090506200028e919062000292565b5090565b5b80821115620002ad57600081600090555060010162000293565b5090565b6000620002c8620002c28462000436565b6200040d565b905082815260208101848484011115620002e157600080fd5b620002ee848285620004e4565b509392505050565b600082601f8301126200030857600080fd5b81516200031a848260208601620002b1565b91505092915050565b600080604083850312156200033757600080fd5b600083015167ffffffffffffffff8111156200035257600080fd5b6200036085828601620002f6565b925050602083015167ffffffffffffffff8111156200037e57600080fd5b6200038c85828601620002f6565b9150509250929050565b6000620003a5601f836200046c565b9150620003b28262000624565b602082019050919050565b620003c881620004da565b82525050565b60006020820190508181036000830152620003e98162000396565b9050919050565b6000602082019050620004076000830184620003bd565b92915050565b6000620004196200042c565b905062000427828262000550565b919050565b6000604051905090565b600067ffffffffffffffff821115620004545762000453620005e4565b5b6200045f8262000613565b9050602081019050919050565b600082825260208201905092915050565b60006200048a82620004da565b91506200049783620004da565b9250827fffffffffffffffffffffffffffffffffffffffffffffffffffffffffffffffff03821115620004cf57620004ce62000586565b5b828201905092915050565b6000819050919050565b60005b8381101562000504578082015181840152602081019050620004e7565b8381111562000514576000848401525b50505050565b600060028204905060018216806200053357607f821691505b602082108114156200054a5762000549620005b5565b5b50919050565b6200055b8262000613565b810181811067ffffffffffffffff821117156200057d576200057c620005e4565b5b80604052505050565b7f4e487b7100000000000000000000000000000000000000000000000000000000600052601160045260246000fd5b7f4e487b7100000000000000000000000000000000000000000000000000000000600052602260045260246000fd5b7f4e487b7100000000000000000000000000000000000000000000000000000000600052604160045260246000fd5b6000601f19601f8301169050919050565b7f45524332303a206d696e7420746f20746865207a65726f206164647265737300600082015250565b611efc806200065d6000396000f3fe608060405234801561001057600080fd5b506004361061010b5760003560e01c80633a298a75116100a2578063a457c2d711610071578063a457c2d7146102e0578063a9059cbb14610310578063c913dc7d14610340578063dd62ed3e14610371578063f3c756dc146103a15761010b565b80633a298a751461023257806370a08231146102625780638af316451461029257806395d89b41146102c25761010b565b80632d6d4e86116100de5780632d6d4e86146101ac578063313ce567146101c8578063368a36c4146101e657806339509351146102025761010b565b806306fdde0314610110578063095ea7b31461012e57806318160ddd1461015e57806323b872dd1461017c575b600080fd5b6101186103bd565b60405161012591906116b4565b60405180910390f35b610148600480360381019061014391906113c9565b61044f565b6040516101559190611699565b60405180910390f35b610166610472565b6040516101739190611891565b60405180910390f35b6101966004803603810190610191919061137a565b61047c565b6040516101a39190611699565b60405180910390f35b6101c660048036038101906101c19190611405565b6104ab565b005b6101d06104b8565b6040516101dd91906118d5565b60405180910390f35b61020060048036038101906101fb9190611405565b6104c1565b005b61021c600480360381019061021791906113c9565b610781565b6040516102299190611699565b60405180910390f35b61024c60048036038101906102479190611315565b6107b8565b6040516102599190611876565b60405180910390f35b61027c60048036038101906102779190611315565b610825565b6040516102899190611891565b60405180910390f35b6102ac60048036038101906102a791906113c9565b61086d565b6040516102b99190611891565b60405180910390f35b6102ca610929565b6040516102d791906116b4565b60405180910390f35b6102fa60048036038101906102f591906113c9565b6109bb565b6040516103079190611699565b60405180910390f35b61032a600480360381019061032591906113c9565b610a32565b6040516103379190611699565b60405180910390f35b61035a60048036038101906103559190611315565b610a55565b6040516103689291906118ac565b60405180910390f35b61038b6004803603810190610386919061133e565b610a79565b6040516103989190611891565b60405180910390f35b6103bb60048036038101906103b69190611405565b610b00565b005b6060600380546103cc90611aa9565b80601f01602080910402602001604051908101604052809291908181526020018280546103f890611aa9565b80156104455780601f1061041a57610100808354040283529160200191610445565b820191906000526020600020905b81548152906001019060200180831161042857829003601f168201915b5050505050905090565b60008061045a610c41565b9050610467818585610c49565b600191505092915050565b6000600254905090565b600080610487610c41565b9050610494858285610e14565b61049f858585610ea0565b60019150509392505050565b6104b53382611118565b50565b60006012905090565b6000600560003373ffffffffffffffffffffffffffffffffffffffff1673ffffffffffffffffffffffffffffffffffffffff1681526020019081526020016000206000015411610546576040517f08c379a000000000000000000000000000000000000000000000000000000000815260040161053d906117d6565b60405180910390fd5b80600560003373ffffffffffffffffffffffffffffffffffffffff1673ffffffffffffffffffffffffffffffffffffffff1681526020019081526020016000206000015410156105cb576040517f08c379a00000000000000000000000000000000000000000000000000000000081526004016105c290611776565b60405180910390fd5b60006105d7338361086d565b905060006105ee828461126f90919063ffffffff16565b90506105f930610825565b81111561063b576040517f08c379a000000000000000000000000000000000000000000000000000000000815260040161063290611816565b60405180910390fd5b82600560003373ffffffffffffffffffffffffffffffffffffffff1673ffffffffffffffffffffffffffffffffffffffff1681526020019081526020016000206000015414156106dc57600560003373ffffffffffffffffffffffffffffffffffffffff1673ffffffffffffffffffffffffffffffffffffffff16815260200190815260200160002060008082016000905560018201600090555050610771565b82600560003373ffffffffffffffffffffffffffffffffffffffff1673ffffffffffffffffffffffffffffffffffffffff1681526020019081526020016000206000015461072a91906119ed565b600560003373ffffffffffffffffffffffffffffffffffffffff1673ffffffffffffffffffffffffffffffffffffffff168152602001908152602001600020600001819055505b61077c303383610ea0565b505050565b60008061078c610c41565b90506107ad81858561079e8589610a79565b6107a8919061190c565b610c49565b600191505092915050565b6107c06112d1565b600560008373ffffffffffffffffffffffffffffffffffffffff1673ffffffffffffffffffffffffffffffffffffffff168152602001908152602001600020604051806040016040529081600082015481526020016001820154815250509050919050565b60008060008373ffffffffffffffffffffffffffffffffffffffff1673ffffffffffffffffffffffffffffffffffffffff168152602001908152602001600020549050919050565b600080600560008573ffffffffffffffffffffffffffffffffffffffff1673ffffffffffffffffffffffffffffffffffffffff168152602001908152602001600020905060006108ca82600101544261128590919063ffffffff16565b9050600061091b606461090d61012c6108ff600a6108f1888c61129b90919063ffffffff16565b61129b90919063ffffffff16565b6112b190919063ffffffff16565b6112b190919063ffffffff16565b905080935050505092915050565b60606004805461093890611aa9565b80601f016020809104026020016040519081016040528092919081815260200182805461096490611aa9565b80156109b15780601f10610986576101008083540402835291602001916109b1565b820191906000526020600020905b81548152906001019060200180831161099457829003601f168201915b5050505050905090565b6000806109c6610c41565b905060006109d48286610a79565b905083811015610a19576040517f08c379a0000000000000000000000000000000000000000000000000000000008152600401610a1090611836565b60405180910390fd5b610a268286868403610c49565b60019250505092915050565b600080610a3d610c41565b9050610a4a818585610ea0565b600191505092915050565b60056020528060005260406000206000915090508060000154908060010154905082565b6000600160008473ffffffffffffffffffffffffffffffffffffffff1673ffffffffffffffffffffffffffffffffffffffff16815260200190815260200160002060008373ffffffffffffffffffffffffffffffffffffffff1673ffffffffffffffffffffffffffffffffffffffff16815260200190815260200160002054905092915050565b60008111610b43576040517f08c379a0000000000000000000000000000000000000000000000000000000008152600401610b3a906117f6565b60405180910390fd5b6000600560003373ffffffffffffffffffffffffffffffffffffffff1673ffffffffffffffffffffffffffffffffffffffff1681526020019081526020016000206000015414610bc8576040517f08c379a0000000000000000000000000000000000000000000000000000000008152600401610bbf90611736565b60405180910390fd5b610bd3333083610ea0565b604051806040016040528082815260200142815250600560003373ffffffffffffffffffffffffffffffffffffffff1673ffffffffffffffffffffffffffffffffffffffff168152602001908152602001600020600082015181600001556020820151816001015590505050565b600033905090565b600073ffffffffffffffffffffffffffffffffffffffff168373ffffffffffffffffffffffffffffffffffffffff161415610cb9576040517f08c379a0000000000000000000000000000000000000000000000000000000008152600401610cb0906117b6565b60405180910390fd5b600073ffffffffffffffffffffffffffffffffffffffff168273ffffffffffffffffffffffffffffffffffffffff161415610d29576040517f08c379a0000000000000000000000000000000000000000000000000000000008152600401610d20906116f6565b60405180910390fd5b80600160008573ffffffffffffffffffffffffffffffffffffffff1673ffffffffffffffffffffffffffffffffffffffff16815260200190815260200160002060008473ffffffffffffffffffffffffffffffffffffffff1673ffffffffffffffffffffffffffffffffffffffff168152602001908152602001600020819055508173ffffffffffffffffffffffffffffffffffffffff168373ffffffffffffffffffffffffffffffffffffffff167f8c5be1e5ebec7d5bd14f71427d1e84f3dd0314c0f7b2291e5b200ac8c7c3b92583604051610e079190611891565b60405180910390a3505050565b6000610e208484610a79565b90507fffffffffffffffffffffffffffffffffffffffffffffffffffffffffffffffff8114610e9a5781811015610e8c576040517f08c379a0000000000000000000000000000000000000000000000000000000008152600401610e8390611716565b60405180910390fd5b610e998484848403610c49565b5b50505050565b600073ffffffffffffffffffffffffffffffffffffffff168373ffffffffffffffffffffffffffffffffffffffff161415610f10576040517f08c379a0000000000000000000000000000000000000000000000000000000008152600401610f0790611796565b60405180910390fd5b600073ffffffffffffffffffffffffffffffffffffffff168273ffffffffffffffffffffffffffffffffffffffff161415610f80576040517f08c379a0000000000000000000000000000000000000000000000000000000008152600401610f77906116d6565b60405180910390fd5b610f8b8383836112c7565b60008060008573ffffffffffffffffffffffffffffffffffffffff1673ffffffffffffffffffffffffffffffffffffffff16815260200190815260200160002054905081811015611011576040517f08c379a000000000000000000000000000000000000000000000000000000000815260040161100890611756565b60405180910390fd5b8181036000808673ffffffffffffffffffffffffffffffffffffffff1673ffffffffffffffffffffffffffffffffffffffff16815260200190815260200160002081905550816000808573ffffffffffffffffffffffffffffffffffffffff1673ffffffffffffffffffffffffffffffffffffffff168152602001908152602001600020600082825401925050819055508273ffffffffffffffffffffffffffffffffffffffff168473ffffffffffffffffffffffffffffffffffffffff167fddf252ad1be2c89b69c2b068fc378daa952ba7f163c4a11628f55a4df523b3ef846040516110ff9190611891565b60405180910390a36111128484846112cc565b50505050565b600073ffffffffffffffffffffffffffffffffffffffff168273ffffffffffffffffffffffffffffffffffffffff161415611188576040517f08c379a000000000000000000000000000000000000000000000000000000000815260040161117f90611856565b60405180910390fd5b611194600083836112c7565b80600260008282546111a6919061190c565b92505081905550806000808473ffffffffffffffffffffffffffffffffffffffff1673ffffffffffffffffffffffffffffffffffffffff168152602001908152602001600020600082825401925050819055508173ffffffffffffffffffffffffffffffffffffffff16600073ffffffffffffffffffffffffffffffffffffffff167fddf252ad1be2c89b69c2b068fc378daa952ba7f163c4a11628f55a4df523b3ef836040516112579190611891565b60405180910390a361126b600083836112cc565b5050565b6000818361127d919061190c565b905092915050565b6000818361129391906119ed565b905092915050565b600081836112a99190611993565b905092915050565b600081836112bf9190611962565b905092915050565b505050565b505050565b604051806040016040528060008152602001600081525090565b6000813590506112fa81611e98565b92915050565b60008135905061130f81611eaf565b92915050565b60006020828403121561132757600080fd5b6000611335848285016112eb565b91505092915050565b6000806040838503121561135157600080fd5b600061135f858286016112eb565b9250506020611370858286016112eb565b9150509250929050565b60008060006060848603121561138f57600080fd5b600061139d868287016112eb565b93505060206113ae868287016112eb565b92505060406113bf86828701611300565b9150509250925092565b600080604083850312156113dc57600080fd5b60006113ea858286016112eb565b92505060206113fb85828601611300565b9150509250929050565b60006020828403121561141757600080fd5b600061142584828501611300565b91505092915050565b61143781611a33565b82525050565b6000611448826118f0565b61145281856118fb565b9350611462818560208601611a76565b61146b81611b68565b840191505092915050565b60006114836023836118fb565b915061148e82611b79565b604082019050919050565b60006114a66022836118fb565b91506114b182611bc8565b604082019050919050565b60006114c9601d836118fb565b91506114d482611c17565b602082019050919050565b60006114ec6017836118fb565b91506114f782611c40565b602082019050919050565b600061150f6026836118fb565b915061151a82611c69565b604082019050919050565b6000611532601c836118fb565b915061153d82611cb8565b602082019050919050565b60006115556025836118fb565b915061156082611ce1565b604082019050919050565b60006115786024836118fb565b915061158382611d30565b604082019050919050565b600061159b6014836118fb565b91506115a682611d7f565b602082019050919050565b60006115be6020836118fb565b91506115c982611da8565b602082019050919050565b60006115e16024836118fb565b91506115ec82611dd1565b604082019050919050565b60006116046025836118fb565b915061160f82611e20565b604082019050919050565b6000611627601f836118fb565b915061163282611e6f565b602082019050919050565b604082016000820151611653600085018261166c565b506020820151611666602085018261166c565b50505050565b61167581611a5f565b82525050565b61168481611a5f565b82525050565b61169381611a69565b82525050565b60006020820190506116ae600083018461142e565b92915050565b600060208201905081810360008301526116ce818461143d565b905092915050565b600060208201905081810360008301526116ef81611476565b9050919050565b6000602082019050818103600083015261170f81611499565b9050919050565b6000602082019050818103600083015261172f816114bc565b9050919050565b6000602082019050818103600083015261174f816114df565b9050919050565b6000602082019050818103600083015261176f81611502565b9050919050565b6000602082019050818103600083015261178f81611525565b9050919050565b600060208201905081810360008301526117af81611548565b9050919050565b600060208201905081810360008301526117cf8161156b565b9050919050565b600060208201905081810360008301526117ef8161158e565b9050919050565b6000602082019050818103600083015261180f816115b1565b9050919050565b6000602082019050818103600083015261182f816115d4565b9050919050565b6000602082019050818103600083015261184f816115f7565b9050919050565b6000602082019050818103600083015261186f8161161a565b9050919050565b600060408201905061188b600083018461163d565b92915050565b60006020820190506118a6600083018461167b565b92915050565b60006040820190506118c1600083018561167b565b6118ce602083018461167b565b9392505050565b60006020820190506118ea600083018461168a565b92915050565b600081519050919050565b600082825260208201905092915050565b600061191782611a5f565b915061192283611a5f565b9250827fffffffffffffffffffffffffffffffffffffffffffffffffffffffffffffffff0382111561195757611956611adb565b5b828201905092915050565b600061196d82611a5f565b915061197883611a5f565b92508261198857611987611b0a565b5b828204905092915050565b600061199e82611a5f565b91506119a983611a5f565b9250817fffffffffffffffffffffffffffffffffffffffffffffffffffffffffffffffff04831182151516156119e2576119e1611adb565b5b828202905092915050565b60006119f882611a5f565b9150611a0383611a5f565b925082821015611a1657611a15611adb565b5b828203905092915050565b6000611a2c82611a3f565b9050919050565b60008115159050919050565b600073ffffffffffffffffffffffffffffffffffffffff82169050919050565b6000819050919050565b600060ff82169050919050565b60005b83811015611a94578082015181840152602081019050611a79565b83811115611aa3576000848401525b50505050565b60006002820490506001821680611ac157607f821691505b60208210811415611ad557611ad4611b39565b5b50919050565b7f4e487b7100000000000000000000000000000000000000000000000000000000600052601160045260246000fd5b7f4e487b7100000000000000000000000000000000000000000000000000000000600052601260045260246000fd5b7f4e487b7100000000000000000000000000000000000000000000000000000000600052602260045260246000fd5b6000601f19601f8301169050919050565b7f45524332303a207472616e7366657220746f20746865207a65726f206164647260008201527f6573730000000000000000000000000000000000000000000000000000000000602082015250565b7f45524332303a20617070726f766520746f20746865207a65726f20616464726560008201527f7373000000000000000000000000000000000000000000000000000000000000602082015250565b7f45524332303a20696e73756666696369656e7420616c6c6f77616e6365000000600082015250565b7f596f752068617665207374616b656420616c7265616479000000000000000000600082015250565b7f45524332303a207472616e7366657220616d6f756e742065786365656473206260008201527f616c616e63650000000000000000000000000000000000000000000000000000602082015250565b7f596f7520646f6e2774206861766520656e6f756768207374616b657300000000600082015250565b7f45524332303a207472616e736665722066726f6d20746865207a65726f20616460008201527f6472657373000000000000000000000000000000000000000000000000000000602082015250565b7f45524332303a20617070726f76652066726f6d20746865207a65726f2061646460008201527f7265737300000000000000000000000000000000000000000000000000000000602082015250565b7f596f7572207374616b657320617265205a65726f000000000000000000000000600082015250565b7f546f6b656e73206d7573742062652067726561746572207468616e207a65726f600082015250565b7f496e73756666696369656e742062616c616e636520696e2074686520636f6e7460008201527f7261637400000000000000000000000000000000000000000000000000000000602082015250565b7f45524332303a2064656372656173656420616c6c6f77616e63652062656c6f7760008201527f207a65726f000000000000000000000000000000000000000000000000000000602082015250565b7f45524332303a206d696e7420746f20746865207a65726f206164647265737300600082015250565b611ea181611a21565b8114611eac57600080fd5b50565b611eb881611a5f565b8114611ec357600080fd5b5056fea26469706673582212204960a321452f05ad968e9afbb4d1c5e5a5b026a39bdb1a9650a9a1157258394164736f6c63430008010033",
  "linkReferences": {},
  "deployedLinkReferences": {}
}